:020000040800F2
:10000000FCFF0020FD260000E1260000E1260000A4
:10001000E1260000E1260000E1260000E1260000C4
:10002000E1260000E1260000E1260000E1260000B4
:10003000E1260000E1260000E1260000E1260000A4
:10004000E1260000E1260000E1260000E126000094
:10005000E1260000E1260000E1260000E126000084
:10006000E1260000E1260000E1260000E126000074
:10007000E1260000E1260000E1260000E126000064
:10008000E1260000E1260000E1260000E126000054
:10009000E1260000E1260000E1260000E126000044
:1000A000E1260000E1260000E1260000E126000034
:1000B000E1260000E1260000E1260000E126000024
:1000C000E1260000E1260000E1260000E126000014
:1000D000E1260000E1260000E1260000E126000004
:1000E000E1260000E1260000E1260000E1260000F4
:1000F000E1260000E1260000E1260000E1260000E4
:10010000E1260000E1260000E1260000E1260000D3
:10011000E1260000E1260000E1260000E1260000C3
:10012000E1260000E1260000E1260000E1260000B3
:10013000E1260000E1260000E1260000E1260000A3
:10014000E1260000E1260000E1260000E126000093
:1001500001480068704700BF3C02002083B0CDF822
:1001600000E000F0FF031A09104603F00F021346E7
:1001700014E0194A02921FE0184A02921CE0184A41
:10018000029219E0174A029216E0174A029213E00F
:10019000164A029210E0164A02920DE00028E8D0BA
:1001A0000128E9D00228EAD00328EBD00428ECD0BB
:1001B0000528EDD00628EED0012212B29A40ADF803
:1001C000042002980A46BDF8041000F089FEDDF80C
:1001D00000E003B0704700BF00080140000C014080
:1001E000001001400014014000180140001C0140B3
:1001F0000020014081B000F218010A68C2F34001FA
:1002000081F00101C9B2C8B201B0704781B000F2FB
:1002100014010A6800F218010968090442EA0101A0
:10022000084601B07047FFFF82B0CDF800E0CFB2C2
:1002300001469846029B4FF000064FF00005C44C63
:10024000A14207D1C34CD4F80090C34C2568C34CDD
:1002500025600BE0C24CA14207D1C24C2068C24CC1
:100260002568BE4C2560814600E0A946BF4CC4F815
:100270000090F4E101F210057C00A4B244F0010406
:10028000A4B22C60019616464F46019A01F214045E
:100290002568C5F3400464B9B44C246844B127B957
:1002A0000320AE4C2468A047E2E1781E0746FFE732
:1002B000ECE700250C6865F38A240C6001F2140455
:1002C000206800BF01F218042468240440EA0404F2
:1002D0002046012B05D101250C6865F349240C60EB
:1002E00004E001250C6865F308240C609F4C256828
:1002F0009146984637460E469D49304600F0C2F971
:1003000068B99A4C24684CB125B90320934C2468F1
:10031000A047ADE16C1E20460546FFE7ECE707EB82
:10032000090506F2100424682C70B8F1010F13D1EE
:100330008E4C216830460568C5F340245CB98B4C6F
:1003400024683CB121B90320844C2468A0478FE184
:10035000491EFFE7EFE712E0844C2168304605684C
:10036000C5F300245CB9814C24683CB121B9032059
:100370007A4C2468A0477BE1491EFFE7EFE777E16D
:1003800001250C6865F38A240C6001250C6865F36F
:10039000CB240C6001F210057C00A4B244F00104EF
:1003A000A4B22C604F4601F214042568C5F3400442
:1003B00064B96E4C246844B127B90320674C2468A3
:1003C000A04755E1781E0746FFE7ECE701F2140469
:1003D000206800BF01F2180424682404204300258B
:1003E0000C6865F38A240C60604C276801F21404E1
:1003F0002568C5F3800464B95C4C246844B127B90E
:100400000320564C2468A04732E1781E0746FFE7D8
:10041000ECE7012B05D101250C6865F349240C603C
:1004200004E001250C6865F308240C60951901F2BD
:10043000100424682C70741C151901F2100424682F
:100440002C70012B14D1494C22680D68C5F340244F
:1004500064B9464C246844B122B903203F4C246857
:10046000A04705E1501E0246FFE7EEE7084613E00D
:100470003E4C22680D68C5F3002464B93B4C2468E7
:1004800044B122B90320354C2468A047F0E0501E47
:100490000246FFE7EEE708460025046865F3CB2433
:1004A0000460E5E001250C6865F38A240C6001F224
:1004B00010057C00A4B244F00104A4B22C604646AE
:1004C000C846894617461D462A49484600F0DAF8CC
:1004D00078B9264C24685CB1B8F1000F04D1032030
:1004E0001E4C2468A047C3E0A8F101008046FFE746
:1004F000EAE70021A8464A46B1463B46A9F1030473
:10050000A14222D2194C25688A4617461E46184930
:10051000384600F0B7F860B9144C246844B125B9E6
:1005200003200E4C2468A047A2E0681E0546FFE7A2
:10053000EDE706EB0A0507F2100424682C700AF1B7
:100540000104214633463A46D8E7084C00F014B877
:10055000005400400002002044020020400200201D
:100560000058004004020020480200200802002039
:100570004000030002000300276801930B46164663
:100580004246019906F214042568C5F3800464B953
:10059000394C246844B127B90320384C2468A0475B
:1005A00066E0781E0746FFE7ECE70025346865F350
:1005B0008A243460CD1806F2100424682C70581C6C
:1005C0002D4C23681746024606F214042568C5F32D
:1005D000800464B9284C246844B123B90320274C13
:1005E0002468A04744E0581E0346FFE7ECE7012FCC
:1005F00007D10125346865F349243460104632463A
:1006000021E00125346865F3082434601A4CD4F8DD
:10061000008017460D461A49304600F033F878B985
:10062000154C24685CB1B8F1000F04D10320134CC1
:100630002468A0471CE0A8F101008046FFE7EAE734
:100640002946324638460D1802F2100424682C70F0
:10065000441C0D1902F2100424682C7008E0B8F153
:10066000010F3FF407AEB8F1020F3FF489AE19E76E
:10067000DDF800E002B070470802002040020020D0
:100680000100030081B0CDF800E00B46FFF7BEFD8E
:1006900000EA03029A4240F2000200D10122D0B2E5
:1006A000DDF800E001B0704781B0CDF800E04FF018
:1006B00000021949884207D118490B6818490A688D
:1006C00018490A601C460BE01749884207D11749B0
:1006D0000B6817490A6813490A601C4600E0144673
:1006E00014490C6003461846FFF784FD70B91149A0
:1006F000096851B12CB905200A4C2468A047002094
:1007000005E0611E08460446FFE7ECE70120DDF83E
:1007100000E001B0704700BF00540040000200201C
:100720004402002040020020005800400402002043
:10073000480200200802002081B0CDF800E008B493
:1007400013460A46C1B20448FFF76EFD01B0DDF85A
:1007500000E001B0704700BF0058004081B0194967
:1007600000EA0101084600220EE0042022E00820F1
:1007700020E010201EE020201CE040201AE0802015
:1007800018E040F2001015E00F498842EDD00F4903
:100790008842ECD00E498842EBD00E498842EAD01C
:1007A0000D498842E9D00D498842E8D00C49884279
:1007B000E7D010460B49096841EA000209490A607E
:1007C00001B0704700FCFFFF00080140000C014031
:1007D000001001400014014000180140001C0140BD
:1007E000002001401810024081B0CDF800E008B4AC
:1007F00013460A46C1B20448FFF716FD01B0DDF802
:1008000000E001B0704700BF0054004081B0CDF857
:1008100000E0012252B23E490A6000F268010B6812
:100820006FF0006103EA0102144603F00061C90E93
:100830000B4602F00041B1F1004F02D135490A6880
:1008400001E035490A6804F47021090C0E464FF6A0
:10085000FF7104EA01010D4604F44011B1F5401F97
:100860000DD16FF0706102EA01010E462A490A6853
:100870006FF070610A4028490A60324616E004F4BD
:100880008011B1F5801F09D14FF00301B140C94378
:1008900002EA010141F070610A4607E0610D0901B9
:1008A00005FA01F1C9430A4042F070622BB1610DB3
:1008B000090105FA01F10A43FFE704F00041B1F133
:1008C000004F02D113490A6001E013490A6040F267
:1008D000000A81464FEA8A0109EB01010968B1F17A
:1008E000FF3F10D009F134014FEA8A03C9180968A3
:1008F0000A4609EB0301096808461146FFF72EFC7A
:100900000AF1010AE6E7DDF800E001B0704700BF38
:10091000000342421C0001400400014082B0CDF8B7
:1009200000E0034619460191FFF712FC40F2E8315E
:1009300000FB01F201990A601F490978C1F3031114
:10094000C8B21E4909180878C0B21A1D1968C140FA
:10095000116019490988C1F3022188B217490918A1
:100960000878C0B203F20802191D0968C14011607D
:1009700011490988C1F3C22188B2104909180878C1
:10098000C0B203F20C02191D0968C14011600A4986
:100990000988C1F3813188B2094909180978C8B2B8
:1009A00003F2100203F20C010968B1FBF0F11160CF
:1009B000DDF800E002B07047041002407C2C00001B
:1009C0009C2C000089B0CDF800E0834698B28C469C
:1009D000BDF824100A9E04ACADF80410ADF8080070
:1009E0002046FFF79BFFBDF80800BDF80410644CDB
:1009F000A34512D101256DB2624C2560624D634C56
:100A00002560634D634C2560634D644C2560644DE7
:100A1000644C2560079C039456E0634CA34512D1B7
:100A200001256DB2614C2560614D584C2560614DCA
:100A3000584C2560604D594C2560604D594C2560DF
:100A4000069C039440E05E4CA34512D101256DB293
:100A50005C4C25605C4D4D4C25605C4D4D4C2560DB
:100A60005B4D4E4C25605B4D4E4C2560069C0394BF
:100A70002AE0594CA34512D101256DB2574C25608F
:100A8000574D424C2560574D424C2560564D434CC6
:100A90002560564D434C2560069C039414E0544C4D
:100AA000A34511D101256DB2524C2560524D374CF2
:100AB0002560524D374C2560514D384C2560514DC5
:100AC000384C2560069C0394ADF80410ADF808007E
:100AD0003046FFF79BFEBDF80800BDF804100BF18F
:100AE000100500242C600BF110052C680C432C60C1
:100AF0000BF10C0500242C6018B140F4806080B22A
:100B0000FFE70BF10C052C6804432C600BF10C067D
:100B10000125346865F34D3434600BF10C06012572
:100B2000346865F3C30434600BF10C0601253468A6
:100B300065F3820434600BF1140500242C60039DDE
:100B4000192465434FEA8C04B5FBF4F76424B7FB22
:100B5000F4F42601350964246C433C1B240104F29F
:100B600032056424B5FBF4F404F00F0446EA0404EF
:100B70000BF10805A4B22C60DDF800E009B0704765
:100B8000003801403803424201140000580200209E
:100B9000191300005C0200207D1300006002002099
:100BA000011300006402002000440040C4034242DC
:100BB000E51300008912000071120000E912000024
:100BC00000480040C8034242C9130000D11200008F
:100BD000B9120000B1130000004C0040CC034242A7
:100BE0001D14000039150000211500000915000032
:100BF00000500040D0034242C914000051150000CB
:100C0000A51500008D15000083B0CDF800E0034667
:100C10004FF0000026498B4206D126490C68264930
:100C20000A6826490A600BE025498B4207D125490D
:100C3000086825490A6821490A60044600E004461C
:100C400022490C60019402931846FFF72DFD029B88
:100C5000019C10B94FF6FF7025E00122196862F37C
:100C60000821196003F214010A68C2F3402111B18E
:100C70004FF6FF7017E025461C4615492046FFF742
:100C800001FD78B91149096859B135B906200B4CF5
:100C90002468A0474FF6FF7005E0691E0846054628
:100CA000FFE7EAE70020DDF800E003B0704700BF8F
:100CB00000540040000200204402002040020020B6
:100CC00000580040040200204802002008020020D2
:100CD0000100030082B0CDF800E0029E4FF0000555
:100CE000564CA04206D1564C2768564C2568564CA7
:100CF00025600AE0554CA04206D1554C2768554C5A
:100D00002568514C256000E02F46534C276000F2C7
:100D100010054C00A4B22C60B946074690463546F3
:100D20001E464E493846FFF7ADFC88B94A4C246848
:100D30006CB1B9F1000F06D10420434C2468A047E0
:100D40004FF6FF7076E0A9F101008146FFE7E8E782
:100D50000020019729463746019E7C1EA04226D2DC
:100D600006F2100508EB000424782C603A4CD4F805
:100D7000009082460D463A493046FFF783FC88B919
:100D8000354C24686CB1B9F1000F06D104202E4C0B
:100D90002468A0474FF6FF704CE0A9F1010081469E
:100DA000FFE7E8E70AF1010420462946D5E706F205
:100DB000100508EB000424782C60274C27680D46AA
:100DC00028493046FFF75EFC70B9234C246854B1C3
:100DD00037B904201C4C2468A0474FF6FF7029E067
:100DE000781E0746FFE7EBE7012D05D101253468A2
:100DF00065F3492434601CE00125346865F3082458
:100E00003460154C2768354617492846FFF73AFCE9
:100E100078B9114C24685CB137B904200A4C2468B5
:100E2000A0474FF6FF7005E07C1E20460746FFE70F
:100E3000EAE70020DDF800E002B07047005400400F
:100E40000002002044020020400200200058004020
:100E5000040200204802002008020020820007004F
:100E600080000700840007000100030081B0ADF896
:100E700000100146BDF800000B68C3F3C01202B9B0
:100E8000FAE70A1D106001B07047FFFF82B0CDF88D
:100E900000E040F20004ADF80440044C2468A04790
:100EA000BDF90400DDF800E002B070473002002018
:100EB00081B00268C2F3401101B9FAE7011D096867
:100EC00088B201B07047FFFF81B00168C1F34010E4
:100ED00001B0704781B00168C1F3801001B0704764
:100EE00081B0CDF800E08CB21546774B00EA0303E1
:100EF0001E461846FFF732FCB4F1FF0F0CD1734BBE
:100F00009D4203D14FF033333360D9E0422D03D1FA
:100F10004FF044333360D3E04FF6FF739C4214D15B
:100F20006A4B9D4207D14FF033333360341D4FF08D
:100F300033332360C4E0422D07D14FF04433336094
:100F4000341D4FF044332360BAE00021002005F047
:100F500001030BB100211DE005F0020333B105F4DC
:100F6000C0730BB1082100E0042113E005F0040375
:100F700033B105F020030BB1042100E0002109E0AA
:100F800005F0080333B105F020030BB10C2100E09C
:100F90000821FFE74E4B05EA03030BB1032009E0EC
:100FA00005F400730BB1022004E005F480630BB17B
:100FB0000120FFE705F00C030BB10143FFE704F04C
:100FC000FF039BB2002B3BD0376800201FFA84F848
:100FD00032462E4608282CD24FF0010303FA00F4C3
:100FE00008EA0403A34222D185004FF00F03AB406F
:100FF000DB4307EA030401FA05F344EA03031D4651
:1010000006F48173B3F5817F05D102F214044FF029
:1010100001038340236006F08203822B05D102F294
:1010200010044FF00103834023602F46FFE7401C6C
:10103000D0E717601FFA88F00F463146164602E0E7
:101040000F462946A0B2B0F1FF0F39D9331DD3F8AE
:1010500000800022082A30D202F208044FF0010377
:1010600003FA04F400EA0403A34224D195004FF0EC
:101070000F03AB40DB4308EA030807FA05F348EA2D
:10108000030801F48173B3F5817F07D106F21405DB
:1010900002F208044FF00103A3402B6001F0820329
:1010A000822B07D106F2100502F208044FF001036B
:1010B000A3402B60FFE7521CCCE7331DC3F8008030
:1010C000DDF800E001B0704700FCFFFF14000800ED
:1010D0000008080088B0CDF800E00E46554B984255
:1010E0000DD1012464B2544B1C60544C544B1C6011
:1010F000544C554B1C60554C554B1C600FE0554BE8
:1011000098420CD1012464B2534B1C60534C4C4B9D
:101110001C60534C4C4B1C60524C4D4B1C60019658
:1011200002901046FFF772FB0298019E031D1B6898
:101130009CB26FF03F0304EA03039DB203AB01903E
:101140001846FFF7EBFB0198059F059C464BB4FB47
:10115000F3F399B29BB245EA0304A4B2031D1C60E9
:101160000024036864F30003036000223F4B9E42A7
:1011700012D87300B7FBF3F4A4B2042C02D20423F8
:101180001C46FFE742EA04039AB200F220044B1C1B
:101190009BB2236091B23FE0032306FB03F4B7FB4D
:1011A000F4F31FFA83F8192306FB03F5B7FBF5F3F5
:1011B0001FFA83F908FB04F409FB05F33C1BFB1A37
:1011C0009C4205D203237343B7FBF3F4A4B206E0B9
:1011D00019237343B7FBF3F4A4B244F4804440F6FC
:1011E000FF7304EA030313B944F00104FFE744F476
:1011F00000439BB21A4392B200F2200540F22C1336
:1012000001FB03F4A4B240F2E833B4FBF3F39BB266
:101210005B1C9BB22B6091B200F21C03196000238F
:1012200003600124036864F300030360DDF800E059
:1012300008B0704700540040D403424265130000D8
:101240004C020020E9070000500200206915000050
:101250005402002000580040D803424231130000DD
:1012600039070000E514000040420F00A08601008D
:1012700081B0CDF800E00348FFF726FEDDF800E07E
:1012800001B070470044004081B0CDF800E0034851
:10129000FFF70EFEDDF800E001B0704700440040AB
:1012A00081B0CDF800E04FF0420289B2FFF718FE9E
:1012B000DDF800E001B0704781B0CDF800E00348F0
:1012C000FFF702FEDDF800E001B070470048004083
:1012D00081B0CDF800E00348FFF7EAFDDDF800E05B
:1012E00001B070470048004081B0CDF800E00348ED
:1012F000FFF7F0FDDDF800E001B07047004400406A
:1013000081B0CDF800E00348FFF7E4FDDDF800E030
:1013100001B070470038014081B0CDF800E00348CB
:10132000FFF7C6FDDDF800E001B07047003801406E
:1013300081B0CDF800E00348FFF766FCDDF800E07F
:1013400001B070470058004081B0CDF800E00A4677
:1013500001460348FFF7BEFEDDF800E001B070472C
:101360000054004081B0CDF800E00348FFF74CFC8A
:10137000DDF800E001B070470054004081B0CDF8C6
:1013800000E00348FFF7A0FDDDF800E001B0704782
:101390000038014081B0CDF800E0044A89B2FFF77F
:1013A0009FFDDDF800E001B0704700BF14000800A9
:1013B00081B0CDF800E00348FFF78CFDDDF800E0D8
:1013C00001B070470048004081B0CDF800E081B224
:1013D0000348FFF74BFDDDF800E001B0704700BFA8
:1013E0000048004081B0CDF800E081B20348FFF72B
:1013F0003DFDDDF800E001B0704700BF0044004053
:1014000081B0CDF800E081B20348FFF72FFDDDF891
:1014100000E001B0704700BF0038014081B0CDF856
:1014200000E081B20348FFF721FDDDF800E001B0E4
:10143000704700BF004C004082B0CDF800E001A929
:10144000087000F037FD01A9002301221C2000F0E4
:10145000F1F800F0C5FE0DF10501012301221C2069
:10146000FFF714FD00F0BCFE0DF105010978C8B2CC
:10147000DDF800E002B0704782B0CDF800E001A9CD
:10148000087000F017FD01AA0E4909780023C8B2C0
:101490001146012200F0CEF800F0A2FE0DF1050287
:1014A000084909780123C8B211460122FFF7EEFC72
:1014B00000F096FE0DF105010978C8B2DDF800E0F4
:1014C00002B070471E02002081B0CDF800E081B26A
:1014D0000348FFF7CBFCDDF800E001B0704700BF28
:1014E0000050004081B0CDF800E008B413460A4631
:1014F000C1B20448FFF7EEFB01B0DDF800E001B037
:10150000704700BF0058004081B0CDF800E00348AC
:10151000FFF7E0FCDDF800E001B07047004C004050
:1015200081B0CDF800E00348FFF7CEFCDDF800E025
:1015300001B07047004C004081B0CDF800E0034896
:10154000FFF7B6FCDDF800E001B07047004C00404A
:1015500081B0CDF800E00348FFF7AAFCDDF800E019
:1015600001B070470050004081B0CDF800E008B4F1
:1015700013460A46C1B20448FFF7ACFB01B0DDF8E0
:1015800000E001B0704700BF0054004081B0CDF8CA
:1015900000E00348FFF79EFCDDF800E001B0704773
:1015A0000050004081B0CDF800E00348FFF78CFC0C
:1015B000DDF800E001B070470050004081B0CDF888
:1015C00000E0019D2C4610B408B493B28AB20146E3
:1015D0000348FFF7F7F902B0DDF800E001B070470B
:1015E0000044004081B0CDF800E0019D2C4610B4CD
:1015F00008B493B28AB201460348FFF7E3F902B098
:10160000DDF800E001B070470048004081B0CDF83F
:1016100000E0019D2C4610B408B493B28AB2014692
:101620000348FFF7CFF902B0DDF800E001B07047E2
:101630000038014082B0CDF800E040F20004ADF87F
:101640000440054C2468A047BDF90440044320B27F
:10165000DDF800E002B070473802002081B0CDF81C
:1016600000E0A9E0012905D140F210016548FFF72B
:1016700017FE04E040F210016248FFF78BFEBBE06A
:10168000012905D140F204015F48FFF709FE04E09B
:1016900040F204015C48FFF77DFEADE0012905D171
:1016A00042F200015948FFF7FBFD04E042F200015D
:1016B0005648FFF76FFE9FE0012905D140F2004137
:1016C0005148FFF7EDFD04E040F200414E48FFF7BE
:1016D00061FE91E0012905D140F600014A48FFF77B
:1016E000DFFD04E040F600014748FFF753FE83E0CA
:1016F000012905D141F200014348FFF7D1FD04E083
:1017000041F200014048FFF745FE75E0012905D18F
:1017100040F201013B48FFF7C3FD04E040F2010144
:101720003848FFF737FE67E0012905D140F2004154
:101730003648FFF7B5FD04E040F200413348FFF7BB
:1017400029FE59E0012905D140F200212F48FFF779
:10175000A7FD04E040F200212C48FFF71BFE4BE000
:10176000012905D140F200112848FFF799FD04E056
:1017700040F200112548FFF70DFE3DE0012905D19B
:1017800040F240012248FFF78BFD04E040F24001A7
:101790001F48FFF7FFFD2FE0012905D140F280012E
:1017A0001B48FFF77DFD04E040F280011848FFF779
:1017B000F1FD21E0012020E000283FF453AF012893
:1017C0003FF45EAF02283FF469AF03283FF474AFE3
:1017D00004283FF47FAF05283FF48AAF06283FF482
:1017E00095AF0728A0D00828ACD00928B8D00A287F
:1017F000C4D00B28D0D0DDE70020DDF800E001B038
:10180000704700BF00080140001001400014014073
:10181000000C014081B0CDF800E0094902B440F26B
:10182000000340F2000240F20001FFF7C7FE01B0E2
:10183000044A05490A600020DDF800E001B0704765
:10184000442B0000E5130000240200200149086039
:10185000704700BF9001214201490860704700BFF6
:10186000AC01224201490860704700BFB00122422A
:1018700001490860704700BF8001214201490860AA
:10188000704700BF8801224201490860704700BFCD
:10189000B481224201490860704700BFA80122427A
:1018A00081B0002808BF0FE002B54FF09E0202D4BD
:1018B000521E4000FCD580302CBF521C4000400A14
:1018C00040EAC250BDE8024001B0704784B0CDF894
:1018D00000E0C2B202A90391511C8DF80420C8B2E5
:1018E000FFF7AAFD9DF804200399087002A9491C7E
:1018F0000391D0B2FFF7A0FD0399087002AB1978ED
:10190000C8B2020292B2591C097842EA010108B237
:10191000DDF800E004B0704781B0FAB590EA020645
:101920004CBF4FF000464FF00006010243001B0E73
:1019300012BF41F000414FF000003BE0FF2B35D0DB
:101940005FEA02245FEA42055FEA156511BF44F0D1
:1019500000444FF0FF4030432CE0FF2D26D05B1BAE
:101960000020202764084908A14240EB000028BF5E
:10197000091B7F1E04D0002918BF4900F4D1B840CC
:1019800010F0004F04BF4000B3F1010380302CBFC2
:101990005B1C40007F33DCBF4FF000000AE0FF2BF0
:1019A00004D2400A40EAC350304303E0FF27FF055A
:1019B00056EA0700BDE8FA4001B0704781B00A4618
:1019C00081B200208DB21146052805D20B182022C5
:1019D0001A70401CC0B2F7E70B1800221A70401EA4
:1019E000C0B20C180A23B5FBF3F203FB125292B2F9
:1019F000303222700A22B5FBF2F292B295B202B9ED
:101A000002E0401EC0B2ECE701B0704781B02DE9A2
:101A1000FA414FEA02244FEA42052D0E04D1002C70
:101A200018BF4FF000006CE044F00044FF2D5FD081
:101A30004FEA9404002A48BF64424FEA00214FEA6B
:101A400040031B0E05D1002914BF4FF000001046C3
:101A500057E041F00041FF2B4BD04FEA91010028A5
:101A600048BF49425E1B41BF0F4621463C46764275
:101A700048BF2B46192E47BF44FA06F7C9194FF045
:101A8000000803E0C6F11C0704FA07F8002904BFA8
:101A90004FF0000035E046BF49424FF001074FF0DC
:101AA0000007A3F101034900FBD511F080040DD01C
:101AB00001F0200548EA0508803128BF5B1C01F0D1
:101AC000400458EA040808BF21F480719B1CDCBF65
:101AD0004FF0000015E0FF2B0DD221F0FF014FEA7F
:101AE00041014FEA512040EAC35040EAC77008E084
:101AF00010464FEAD0774FEAC777FF204FEAC05031
:101B00003843BDE8FA4101B07047FFFF81B0CDF81E
:101B100000E0094902B440F2000340F2000240F242
:101B20000001FFF75FFD01B0044A05490A6000208B
:101B3000DDF800E001B070476C2A0000C913000016
:101B40002402002081B0CDF800E0094902B440F23F
:101B5000000340F2000240F20001FFF757FD01B020
:101B6000044A05490A600020DDF800E001B0704732
:101B7000D82A0000011400002402002081B0CDF812
:101B800000E00178CCB2A0B2034C2468A04700204A
:101B9000DDF800E001B070472402002081B0CDF8EC
:101BA00000E0094902B440F2000340F2000240F2B2
:101BB0000001FFF703FD01B0044A05490A60002057
:101BC000DDF800E001B07047442B0000E513000091
:101BD0002402002084B0CDF800E0C2B202A9039133
:101BE000511C8DF80420C8B2FFF746FC9DF8042074
:101BF0000399087002A9491C0391D0B2FFF73CFC7D
:101C00000399087002AB1978C8B2020292B2591C4B
:101C1000097842EA010108B2DDF800E004B070473B
:101C200081B0CDF800E0016808460449FFF78CFB5D
:101C30000020DDF800E001B0704700BFB02B0000CD
:101C400001490860704700BF9881214281B0CDF8FA
:101C500000E0016808460449FFF776FB0020DDF844
:101C600000E001B0704700BFB02B000001490860E0
:101C7000704700BFAC01224281B0CDF800E0A9E07E
:101C8000012905D140F220016548FFF709FB04E076
:101C900040F220016248FFF77DFBBBE0012905D13E
:101CA00040F208015F48FFF7FBFA04E040F2080148
:101CB0005C48FFF76FFBADE0012905D144F200015C
:101CC0005948FFF7EDFA04E044F200015648FFF7E7
:101CD00061FB9FE0012905D140F200415148FFF727
:101CE000DFFA04E040F200414E48FFF753FB91E079
:101CF000012905D140F600014A48FFF7D1FA04E076
:101D000040F600014748FFF745FB83E0012905D174
:101D100041F200014348FFF7C3FA04E041F2000139
:101D20004048FFF737FB75E0012905D141F200017A
:101D30003D48FFF7B5FA04E041F200013A48FFF7E9
:101D400029FB67E0012905D140F600013648FFF77D
:101D5000A7FA04E040F600013348FFF71BFB59E007
:101D6000012905D140F240012F48FFF799FA04E01C
:101D700040F240012C48FFF70DFB4BE0012905D153
:101D800040F220012848FFF78BFA04E040F22001DE
:101D90002548FFF7FFFA3DE0012905D140F2400157
:101DA0002248FFF77DFA04E040F240011F48FFF7A8
:101DB000F1FA2FE0012905D140F280011B48FFF71D
:101DC0006FFA04E040F280011848FFF7E3FA21E0DF
:101DD000012020E000283FF453AF01283FF45EAF1C
:101DE00002283FF469AF03283FF474AF04283FF49E
:101DF0007FAF05283FF48AAF06283FF495AF072848
:101E0000A0D00828ACD00928B8D00A28C4D00B2804
:101E1000D0D0DDE70020DDF800E001B0704700BF62
:101E2000000801400010014000140140000C014076
:101E300001490860704700BF98812242014908604B
:101E4000704700BF9481224201490860704700BF7B
:101E50009C81214200F230011C310A6803490A606A
:101E6000011D0A6802490A60704700BF280200206D
:101E70002C020020026806490A60011D0A68054913
:101E80000A6000F208010A6803490A60704700BF4F
:101E9000340200203802002030020020014908608E
:101EA000704700BFB001224201490860704700BF7F
:101EB000B081224282B0CDF800E040F20004ADF8DB
:101EC0000440064C2468A047BDF9041041EA000014
:101ED00000B2DDF800E002B0704700BF340200201D
:101EE00001490860704700BF98812142014908609C
:101EF000704700BF9C81214201490860704700BFC4
:101F00009401214201490860704700BFA881224224
:101F100001490860704700BFA4812242014908605E
:101F2000704700BFA081224201490860704700BF8E
:101F30008C01224201490860704700BFB0812242F3
:101F400001490860704700BFA801224201490860AA
:101F5000704700BFB881224284B0CDF800E0019004
:101F6000029103922820FFF7B1FC019B18802A20E0
:101F7000FFF7ACFC029B18802C20FFF7A7FC039B0B
:101F80001880DDF800E004B07047FFFF84B0CDF8A2
:101F900000E00190029103921820FFF71BFE019BC5
:101FA00018801A20FFF716FE029B18801C20FFF7EE
:101FB00011FE039B1880DDF800E004B07047FFFFBE
:101FC00081B0CDF800E00E46002183B2002805DA8A
:101FD0000121404280B280B28FB201E098B28FB24C
:101FE0003146FFF7EBFC06213446B8B2002908D988
:101FF00063184A1E92B2A21812781A70491E89B24A
:10200000F4E72022227070B1002081B220464218ED
:102010001278202A02D1491C89B2F8E74A1E92B2EE
:1020200083182D221A70DDF800E001B07047FFFF21
:1020300041F6FF27C0F2B7077F1EFDD100BF00BFEA
:1020400000BF00BF00BF704781B0CDF800E0152091
:10205000FFF7C0FD80B200F0C3F8FFF721FC054A8E
:10206000FFF75AFC034AFFF7D1FC0046DDF800E019
:1020700001B070470000C84181B0CDF800E011E028
:102080000846FFF743FD16E00846FFF787FD12E01C
:102090000846FFF757FD0EE00846FFF7BBFB0AE0D6
:1020A000012008E00028EBD00128EDD02028EFD057
:1020B0003028F1D0F4E7DDF800E001B07047FFFF11
:1020C00081B006B54FEA40024FEA12627F3A44BF40
:1020D0004FF0000011E0D2F11F0209D94FEA0021B0
:1020E00041F00041D14000284CBF4842084604E07E
:1020F00000284FF0004058BF401EBDE8064001B028
:102100007047FFFF82B0CDF800E001AA1070521CAA
:102110001170FFF7CFFE01AA0123114602221C20F5
:10212000FFF788FADDF800E002B0704783B0CDF821
:1021300000E0024610460D228DF808200A228DF894
:1021400009201FE0FFF71AFD23E002782AB1019071
:10215000FFF714FD0198401CF7E71AE002782AB156
:102160000190FFF70BFD0198401CF7E702AA10460B
:10217000FFF704FD0DF109021046FFF7FFFC08E030
:10218000062007E00029DDD00129DED00229E5D0B4
:10219000F6E70020DDF800E003B0704781B0CDF82D
:1021A00000E05FFA81F95FFA82FA0FE05FFA8AF1E4
:1021B0005FFA89F0FFF752FA0DE05FFA8AF15FFAF1
:1021C00089F0FFF759FD06E0012004E00028EDD07A
:1021D0000128F2D0F8E7DDF800E001B07047FFFF1A
:1021E0004DF2BF47C0F201077F1EFDD100BF00BF07
:1021F00000BF00BF00BF704781B0CDF800E00446CB
:10220000074B1A700846FFF735FE2046FFF722FEFF
:102210000120044C2468A047DDF800E001B07047BD
:102220001E0200202C02002044F67F77C0F2120725
:102230007F1EFDD100BF00BF00BF00BF00BF7047C1
:1022400081B0CDF800E08B4609E05846FFF7FEFC70
:102250000AE05846FFF7E4FC06E0012004E000280D
:10226000F3D00128F5D0F8E7DDF800E001B07047C1
:1022700084B0CDF800E00190029103922820FFF78E
:10228000A9FC019B18802A20FFF7A4FC029B188060
:102290002C20FFF79FFC039B1880DDF800E004B0C2
:1022A0007047FFFF82B0CDF800E001AA1070521C09
:1022B0001170FFF7FFFD01AB054A127819460123A3
:1022C000D0B20222FFF7B6F9DDF800E002B07047A5
:1022D0001E02002081B0CDF800E06A22274928487C
:1022E000FFF78AFF38211E20FFF7DCFFFFF778FF9A
:1022F00082211020FFF7D6FFFFF772FF38211F2041
:10230000FFF7D0FFFFF76CFF83212020FFF7CAFF04
:10231000FFF766FF44212220FFF7C4FFFFF760FFAD
:10232000D0212020FFF7EEFEFFF75AFF00212120E9
:10233000FFF7E8FEFFF754FF00212220FFF7E2FE3F
:10234000FFF74EFF08212320FFF7DCFEFFF748FFD1
:1023500040212420FFF7D6FEFFF742FF0948022163
:10236000FFF7E4FE08480221FFF7E0FE07480221DC
:10237000FFF7DCFEDDF800E001B070478C2C0000B8
:102380001C2C00001901002066010020B301002070
:1023900081B04FF000094FF0000CBDEB0A0F04DCD8
:1023A000BDEB0B0F01DBD446EA464BF8049BBBEBBD
:1023B0000A0FFAD1BCEB0A0F05DDE246D9F800B0EE
:1023C0000BF1040BF1E701B07047FFFF81B0154836
:1023D000006840F00101134801601349134801608F
:1023E00010480168124801400E4801600D4801681C
:1023F0006FF4802001400B4801600C4801686FF4C5
:10240000FE00014009480160064801686FF0A050D5
:102410000140044801604FF000010648016001B02E
:10242000704700BF001002400000FFF0041002409F
:10243000FFFFF6FE2C10024081B01CF8019B0BF848
:10244000019BBBEB0A0FF8D101B0704781B0CDF80A
:1024500000E0714A71497248FFF70AFFFFF7C0FEBA
:10246000704A71497148FFF791FDFFF7B9FE704A54
:1024700070497148FFF770FDFFF7B2FEFFF7E4FD0A
:102480006E490860FFF7ACFE6D480121FFF74EFE74
:102490006348B0F900006B49FFF792FD01216948DC
:1024A000FFF744FE68480121FFF740FE674801211D
:1024B000FFF73CFE5D48B0F900006249FFF780FD80
:1024C00001216048FFF732FE61480121FFF72EFE2F
:1024D00060480121FFF72AFE5748B0F9000059492A
:1024E000FFF76EFD01215748FFF720FE5A480121F2
:1024F000FFF71CFE59480221FFF718FE584801213A
:10250000FFF714FE4548B0F900004E49FFF758FDAB
:1025100001214C48FFF70AFE52480121FFF706FE51
:1025200051480121FFF702FE3F48B0F9000045493C
:10253000FFF746FD01214348FFF7F8FD4B48012115
:10254000FFF7F4FD4A480121FFF7F0FD3948B0F9E3
:1025500000003C49FFF734FD01213A48FFF7E6FD52
:1025600044480121FFF7E2FD43480121FFF7DEFD6A
:1025700032480068FFF7A4FD00B23249FFF720FDA2
:1025800001213048FFF7D2FD3C480221FFF7CEFD84
:102590003B480121FFF7CAFD1F48B0F90000294957
:1025A000FFF70EFD01212748FFF7C0FD3548012147
:1025B000FFF7BCFD34480121FFF7B8FD1948B0F919
:1025C00000002049FFF7FCFC01211E48FFF7AEFD8B
:1025D0002E480121FFF7AAFD2D480121FFF7A6FD96
:1025E0001348B0F900001749FFF7EAFC012115482C
:1025F000FFF79CFD27480121FFF798FD264802219F
:10260000FFF794FD25480221FFF790FDFFF710FD2D
:10261000DDF800E001B07047100200200E0200203B
:102620000C020020160200201402002012020020DA
:102630001C0200201A0200201802002020020020A4
:10264000000000200B0000201A00002020000020C5
:102650002A00002030000020390000203D0000202A
:102660004F0000205A000020600000206A00002077
:1026700070000020790000207F00002086000020EC
:102680008C000020970000209D000020A700002063
:10269000AD000020B6000020BA000020CC000020D1
:1026A00081B0CDF800E0012207210020FFF776FD80
:1026B000002201210020FFF771FD0848014600209B
:1026C000FFF7BEFD42F280510120FFF7D5FCFFF776
:1026D000ABFDDDF800E001B0704700BF982C0000B2
:1026E00081B0FEE701B0704781B002490248016045
:1026F00001B07047401901003C02002000F00EF8C4
:1027000000F00EFBFFF7F0FF00F0CAFAFFF7C8FF7A
:10271000FFF7E0FDFFF79AFEFCE7FEE781B0CDF89A
:1027200000E0464A464B474C47494BF680308142D1
:1027300006D94648006840F002014448016011E0B3
:1027400045F6C050814206D94048006840F001017A
:102750003E48016006E03D4801686FF00700014017
:102760003A480160FFF732FE394803603948046097
:10277000394802EA00013948016002F0010040B125
:1027800019463648006800F00200002800D1F8E73A
:1027900000E0194602F4803040B10B462F48006833
:1027A00000F40030002800D1F8E700E00B4602F00A
:1027B000805068B12948006840F080512748016086
:1027C0002648006800F00050002800D1F8E7FFE735
:1027D00002F0806078B12148006840F080611F48B5
:1027E000016011461A461D48006800F0006000288C
:1027F00000D1F8E701E011461A4601F0807070B18F
:102800001648006840F08071144801601146134872
:10281000006800F0007000B9F9E70A46FFE70C48CD
:10282000006800F00C01900000F00C00814200D024
:10283000F5E7DDF800E001B0704700BF8100010559
:1028400002841D00440601004019010000200240DE
:10285000041002402C100240FFFF0F000010024045
:1028600020416363656C2058203A0000000000009E
:102870000000000000000000000020207C2020005C
:10288000204779726F2058203A0020207C202000B9
:10289000204D61672058203A0020202A002A2A2A49
:1028A0002A2A2A2A2A2A2A2A2A2A2A2A2A2A0020BC
:1028B000416363656C2059203A0020207C20200071
:1028C000204779726F2059203A0020207C20200078
:1028D000204D61672059203A0020202A20200054F2
:1028E000656D702E3A00B0202A20200020416363DD
:1028F000656C205A203A0020207C20200020477957
:10290000726F205A203A0020207C202000204D6148
:1029100067205A203A0020202A002A2A2A2A2A2A16
:102920002A2A2A2A2A2A2A2A2A2A2A002D2D2D2D25
:102930002D2D2D2D2D2D2D2D2D2D2D2D2D2D2D2DC7
:102940002D2D2D2D2D2D2D2D2D2D2D2D2D2D2D2DB7
:102950002D2D2D2D2D2D2D2D2D2D2D2D2D2D2D2DA7
:102960002D2D2D2D2D2D2D2D2D2D2D2D2D2D2D2D97
:102970002D2D2D2D2D2D2D2D002D2D2D2D2D2D2DB4
:102980002D2D2D2D2D2D2D2D2D2D2D2D2D2D2D2D77
:102990002D2D2D2D2D2D2D2D2D2D2D2D2D2D2D2D67
:1029A0002D2D2D2D2D2D2D2D2D2D2D2D2D2D2D2D57
:1029B0002D2D2D2D2D2D2D2D2D2D2D2D2D2D2D2D47
:1029C0002D2D2D2D2D007C2020202020416363659E
:1029D0006C202020202020207C202020202020204F
:1029E0004779726F20202020202020207C2020206A
:1029F000202020204D616720202020202020207CC6
:102A00002020202020202054656D702E20B04320EF
:102A1000207C002D2D2D2D2D2D2D2D2D2D2D2D2DD1
:102A20002D2D2D2D2D2D2D2D2D2D2D2D2D2D2D2DD6
:102A30002D2D2D2D2D2D2D2D2D2D2D2D2D2D2D2DC6
:102A40002D2D2D2D2D2D2D2D2D2D2D2D2D2D2D2DB6
:102A50002D2D2D2D2D2D2D2D2D2D2D2D2D2D2D00D3
:102A6000000000000000000000000000380000002E
:102A700039000000FFFFFFFF000000000000000021
:102A80000000000000000000000000000000000046
:102A90000000000000000000000000000000000036
:102AA00018080000180000000000000000000000EE
:102AB0000000000000000000000000000000000016
:102AC0000000000000000000000000000000000006
:102AD0000000000030001408090000000A00000097
:102AE000FFFFFFFF000000000000000000000000EA
:102AF00000000000000000000000000000000000D6
:102B000000000000000000000000000018080000A5
:102B1000180000000000000000000000000000009D
:102B200000000000000000000000000000000000A5
:102B30000000000000000000000000000000000095
:102B4000040000003500000036000000FFFFFFFF1A
:102B50000000000000000000000000000000000075
:102B60000000000000000000000000000000000065
:102B7000000000000000000018080000180000001D
:102B80000000000000000000000000000000000045
:102B90000000000000000000000000000000000035
:102BA0000000000000000000000000000800000815
:102BB0001600000017000000FFFFFFFF00000000EC
:102BC0000000000000000000000000000000000005
:102BD00000000000000000000000000000000000F5
:102BE0000000000028080000280800000000000085
:102BF00000000000000000000000000000000000D5
:102C000000000000000000000000000000000000C4
:102C10000000000000000000020000004D1800004D
:102C20007D18000089180000951800005918000050
:102C30006518000071180000051F0000111F00003A
:102C40001D1F0000E11E0000ED1E0000FFFFFFFF42
:102C5000FFFFFFFFFFFFFFFFFFFFFFFFFFFFFFFF84
:102C6000FFFFFFFFFFFFFFFFFFFFFFFFFFFFFFFF74
:102C7000FFFFFFFFFFFFFFFFFFFFFFFF0000000060
:102C8000010203040102030406070809651300009A
:102C900069150000E9070000A0860100020406088B
:102CA00000B5DFF814B0DFF814A0DFF814C0FFF7A8
:102CB000C3FB00BD704700BF000000200C020020D5
:102CC00060280000FFFFFFFFFFFFFFFFFFFFFFFF88
:102CD000FFFFFFFFFFFFFFFFFFFFFFFFFFFFFFFF04
:102CE000FFFFFFFFFFFFFFFFFFFFFFFFFFFFFFFFF4
:102CF000FFFFFFFFFFFFFFFFFFFFFFFFFFFFFFFFE4
:102D0000FFFFFFFFFFFFFFFFFFFFFFFFFFFFFFFFD3
:102D1000FFFFFFFFFFFFFFFFFFFFFFFFFFFFFFFFC3
:102D200000B5DFF810B0DFF810A0FFF731FB00BDF1
:102D3000704700BF0000002068020020FFFFFFFF77
:00000001FF
