:100000007BEF15F00000000000EF00F000000000A2
:0A0010000000000000000000F3D71C
:0E001C000201ABB102D08B9801D08B8812008C
:0E002A000201ABB102D08B9601D08B86120082
:0E0038000201ABB102D08D9601D08D86120070
:0E0046000201ABB102D0899401D0898412006E
:0E0054000201ABB102D08B9C01D08B8C12004C
:0E0062000201ABB102D08B9401D08B8412004E
:0E0070000201ABB102D08B9A01D08B8A120034
:0E007E000201ABB102D08B9E01D08B8E12001E
:0E008C000201ABB102D08A9201D08A8212002A
:0E009A000201ABB102D08D9401D08D84120012
:0E00A8000201ABB102D08F9201D08F82120004
:0E00B6000201ABB102D08F9401D08F841200F2
:0E00C4000201ABB102D08B9801D08B881200E4
:0E00D2000201ABB102D08B9601D08B861200DA
:0E00E0000201ABB102D08A9401D08A841200D2
:0E00EE000201ABB102D08B9801D08B881200BA
:0E00FC000201ABB102D08B9601D08B861200B0
:0E010A000201ABB102D08F9001D08F801200A5
:0E0118000201ABB102D08B9A01D08B8A12008B
:0E0126000201ABB102D08B9801D08B88120081
:0E0134000201ABB102D08B9801D08B88120073
:0E0142000201ABB102D08B9601D08B86120069
:0E0150000201ABB102D08B9201D08B82120063
:0E015E000201ABB102D08B9A01D08B8A120045
:0E016C000201ABB102D08D9001D08D80120047
:10017A000F0121B302D00000FBD7ABC21CFF120053
:0E018A00ACB202D00000FCD7ABC2ADFF120039
:0E0198000201ABB102D08B9001D08B8012001F
:0E01A6000201ABB102D0899001D08980120015
:0E01B4000201ABB102D0899801D089881200F7
:0E01C2000201ABB102D0899201D089821200F5
:0E01D0000201ABB102D08B9601D08B861200DB
:0E01DE000201ABB102D08D9201D08D821200D1
:0E01EC000201ABB102D08B9801D08B881200BB
:0E01FA000201ABB102D08B9E01D08B8E1200A1
:0E0208000201ABB102D08A9001D08A801200B0
:0E0216000201ABB102D08B9601D08B86120094
:0E0224000201ABB102D08B9C01D08B8C12007A
:10023200F250026EF29E0500FF6A0150FE6E0050FF
:08024200FD6E02BEF28E1200F7
:10024A0068B409D01F0E6614016E0150000A03E15A
:0A025A00010E006E01D0006A1200D0
:10026400C7B409D01F0EC514016E0150000A03E182
:0A027400010E006E01D0006A1200B6
:0A027E00000E82B8010E006E12009F
:0A028800000E82B6010E006E120097
:0A029200000E82B4010E006E12008F
:0A029C00000E80B4010E006E120087
:0A02A600000E81B2010E006E12007E
:0A02B000000E82BE010E006E120067
:0A02BA00000E80B8010E006E120065
:0A02C400000E82B8010E006E120059
:0A02CE00000E80B2010E006E120057
:0A02D800000E9EBA010E006E120027
:1002E20001C1A7F202C1A8F203C1A9F204C1AAF294
:1002F2000201A56BA66BA651120802E1A5518E0858
:1003020008E3A2DF005201E004D00201A54BA62BB4
:10031200F2D70201120EA65D02E18F0EA55D03E384
:100322007B0E006E26D0668066A022D001010151AC
:100332000211031104111BE00201A751A811A91116
:10034200AA110EE146C2E1FF47C2E2FF050EE66EC8
:1003520044C200F045C201F06BDF010E006E09D00D
:10036200010E0201A75F000EA85BA95BAA5BDCD7A6
:04037200006A12000B
:0A037600000E82B0010E006E1200AE
:0A038000000E82BA010E006E12009A
:0A038A00000E80B0010E006E12009C
:10039400AECF01F0ABA202D0AB98AB8801C000F0A5
:0203A400120045
:1003A600ECC1A7F2EDC1A8F2EEC1A9F2EFC1AAF223
:1003B6000201A56BA66BA651120802E1A5518E0893
:1003C60008E34DDF005201E004D00201A54BA62B45
:1003D600F2D70201120EA65D02E18F0EA55D03E3C0
:1003E6007B0E006E26D0C580C5A022D00101EC513F
:1003F600ED11EE11EF111BE00201A751A811A91191
:10040600AA110EE14EC2E1FF4FC2E2FF050EE66EF3
:100416004CC200F04DC201F009DF010E006E09D09A
:10042600010E0201A75F000EA85BA95BAA5BDCD7E1
:04043600006A120046
:0A043A00000E82B2010E006E1200E7
:0A044400000E84B2010E006E1200DB
:0A044E00000E82BA010E006E1200CB
:10045800ECC1A5F2EDC1A6F2EEC1A7F2EFC1A8F278
:10046800C582C5A220D00101EC51ED11EE11EF11AA
:1004780019E00201A551A611A711A8110CE14EC25D
:10048800E1FF4FC2E2FF060EE66E4CC200F04DC21D
:1004980001F0CBDE08D0010E0201A55F000EA65BBD
:0804A800A75BA85BDED7120080
:1004B000ECC1A7F2EDC1A8F2EEC1A9F2EFC1AAF218
:1004C0009E96C5869EB620D00101EC51ED11EE112D
:1004D000EF1119E00201A751A811A911AA110CE10D
:1004E0004EC2E1FF4FC2E2FF030EE66E4CC200F0C7
:1004F0004DC201F09EDE08D0010E0201A75F000E82
:10050000A85BA95BAA5BDED70201C9CFA6F2A55101
:10051000000A02E1C58A01D0C59A9E96C588ECC141
:10052000A7F2EDC1A8F2EEC1A9F2EFC1AAF29EB600
:1005300020D00101EC51ED11EE11EF1119E0020193
:10054000A751A811A911AA110CE14EC2E1FF4FC297
:10055000E2FF030EE66E4CC200F04DC201F069DE10
:1005600008D0010E0201A75F000EA85BA95BAA5B81
:08057000DED7A6C200F0120064
:1005780001C1A7F202C1A8F203C1A9F204C1AAF2FB
:10058800A19A6686A1BA20D0010101510211031176
:10059800041119E00201A751A811A911AA110CE12F
:1005A80046C2E1FF47C2E2FF030EE66E44C200F016
:1005B80045C201F03ADE08D0010E0201A75F000E25
:1005C800A85BA95BAA5BDED702016ACFA6F2A55198
:1005D800000A02E1668A01D0669AA19A668801C17A
:1005E800A7F202C1A8F203C1A9F204C1AAF2A1BAF2
:1005F80020D00101015102110311041119E0020177
:10060800A751A811A911AA110CE146C2E1FF47C2DE
:10061800E2FF030EE66E44C200F045C201F005DEBB
:1006280008D0010E0201A75F000EA85BA95BAA5BB8
:08063800DED7A6C200F012009B
:0A064000000E82B6010E006E1200DB
:0A064A00000E82B8010E006E1200CF
:10065400A19AA5C26AFF01C1A6F202C1A7F203C111
:10066400A8F204C1A9F268A422D001010151021127
:10067400031104111BE00201A651A711A811A9112D
:100684000EE146C2E1FF47C2E2FF040EE66E44C239
:1006940000F045C201F0CBDD010E006E3BD0010E2F
:1006A4000201A65F000EA75BA85BA95BDCD701C1B2
:1006B400A6F202C1A7F203C1A8F204C1A9F2A1BA29
:1006C40022D0010101510211031104111BE00201A6
:1006D400A651A711A811A9110EE146C2E1FF47C214
:1006E400E2FF040EE66E44C200F045C201F09FDD55
:1006F400010E006E0FD0010E0201A65F000EA75B73
:10070400A85BA95BDCD766BC02D0006A03D0668410
:06071400020E006E12004F
:04071A00C584120080
:0A071E00000E84B6010E006E1200FA
:0A072800000E82B6010E006E1200F2
:0A073200000E82BC010E006E1200E2
:0A073C00000E84B4010E006E1200DE
:100746009E96A5C2C9FFECC1A6F2EDC1A7F2EEC105
:10075600A8F2EFC1A9F2C7A422D00101EC51ED1114
:10076600EE11EF111BE00201A651A711A811A91164
:100776000EE14EC2E1FF4FC2E2FF040EE66E4CC22E
:1007860000F04DC201F052DD010E006E3BD0010EAD
:100796000201A65F000EA75BA85BA95BDCD7ECC1D4
:1007A600A6F2EDC1A7F2EEC1A8F2EFC1A9F29EB67C
:1007B60022D00101EC51ED11EE11EF111BE0020107
:1007C600A651A711A811A9110EE14EC2E1FF4FC211
:1007D600E2FF040EE66E4CC200F04DC201F026DDCB
:1007E600010E006E0FD0010E0201A65F000EA75B80
:1007F600A85BA95BDCD7C5BC02D0006A03D0C58460
:06080600020E006E12005C
:0A080C00000E82B8010E006E12000B
:0408160066841200E2
:10081A0001C1A5F202C1A6F203C1A7F204C1A8F25E
:10082A00668266A220D0010101510211031104114E
:10083A0019E00201A551A611A711A8110CE146C29F
:10084A00E1FF47C2E2FF060EE66E44C200F045C26F
:10085A0001F0EADC08D0010E0201A55F000EA65BDA
:08086A00A75BA85BDED71200BA
:0A087200000E81B4010E006E1200AA
:0A087C00000EACB2010E006E120077
:0A088600000E86B0010E006E120095
:0A089000000E82B6010E006E120089
:0C089A00000E0F0121B3010E006E1200D1
:0A08A600000E82BC010E006E12006D
:1008B0001DCF01F00F0122A302D02299228901C08D
:0408C00000F0120032
:0A08C400000EA4BA010E006E12002F
:0A08CE00000E86B4010E006E120049
:0A08D800000E82BE010E006E120039
:0A08E200000E81B0010E006E12003E
:0A08EC00000E82B8010E006E12002B
:0A08F600000E82B6010E006E120023
:0A090000000E84B0010E006E12001C
:0A090A00000E82B6010E006E12000E
:0A091400000E82BA010E006E120000
:0A091E00000E82B8010E006E1200F8
:0A092800000E86B2010E006E1200F0
:100932000B840BAEA4EF04F0010E036E026A016A8F
:0A094200006A0A360232FF0E1200AE
:0E094C00026A016A006A086A036A000E12005D
:08095A000AAE029E000E12001D
:1009620002019B6B9C6B20C200F021C201F060DC93
:1009720000C09BF2000E02019C6F9BC200F09CC261
:0409820001F012006E
:100986000B820BAECDEF04F00368026801680068C5
:080996000A360232FF0E1200C6
:10099E00090E0B6E1E0E0C6EE40E0D6E0D2EFED796
:0C09AE000C2EFCD70B2EFAD70000120014
:1009BA000201A36BA46B9CC2A1F29DC2A2F29BC2CC
:1009CA0000F00036009000803AC2E1FF3BC2E2FF2D
:1009DA0000C0E6FF38C200F039C201F025DC005041
:1009EA000201A313000EA413010E9E5F000E9F5B6B
:1009FA009E519F1115E02AC2E1FF2BC2E2FF010EB0
:100A0A00E66E28C200F029C201F00EDCA1C2E1FFA5
:100A1A00A2C2E2FF00C0E6FF0201A14BA22BE4D76B
:100A2A002AC2E1FF2BC2E2FFE66A28C200F029C20D
:100A3A0001F019EC01F0A1C2E1FFA2C2E2FF00C07D
:100A4A00E6FF0201A051000A06E12CC200F02DC205
:100A5A0001F019EC01F00201A051010A06E124C2D9
:100A6A0000F025C201F019EC01F0A3C200F0A4C203
:040A7A0001F0120075
:100A7E000201A36BA46B9CC2A1F29DC2A2F29BC207
:100A8E0000F0003600903AC2E1FF3BC2E2FF00C028
:100A9E00E6FF38C200F039C201F019EC01F0005047
:100AAE000201A313000EA4139EC200F09FC201F018
:100ABE00010E9E5F000E9F5B0050011018E03AC2BF
:100ACE00E1FF3BC2E2FFA1C2E9FFA2C2EAFFEECF05
:100ADE00E6FF38C200F039C201F019EC01F0005007
:100AEE000201A313000EA413A14BA22BDDD7A0511C
:100AFE00000A06E12CC200F02DC201F019EC01F043
:100B0E000201A051010A06E124C200F025C201F043
:0E0B1E0019EC01F0A3C200F0A4C201F0120015
:100B2C008A0E0201666F010E676FAB0E686F020EC4
:100B3C00696F940E626F030E636F000E646F000E8C
:100B4C00656FD80E6A6F020E6B6F000E6C6F000E25
:100B5C006D6F7C0E726F080E736F000E746F000E4B
:100B6C00756FAC8A900EAB6E948E949C9EAA03D03B
:080B7C00AECF00F0FBD7120020
:080B84000B6A0B86FF0E120044
:100B8C0097C298F2E8DEFEC09BF2980E9C6F020EA4
:100B9C009D6F010E9E6F000E9F6F010EA06F69DF9F
:100BAC00F8DEFEC09BF2990E02019C6F020E9D6F47
:100BBC00010E9E6F000E9F6FA06BF9DEEADE99C2EC
:040BCC0000F0120023
:100BD000640E0201486F020E496F000E4A6F000E4C
:100BE0004B6FA60E406F030E416F000E426F000E5A
:100BF000436F580E506F040E516F000E526F000E6F
:100C0000536FB00E546F040E556FA50E566F020E43
:100C1000576F460E5E6F070E5F6FA50E606F020E78
:100C2000616F1A0E6E6F070E6F6F000E706F000E01
:100C3000716F949894968B988B9694889486C79E9F
:080C4000C79C380EC66E1200BD
:100C4800086A096A100E0C6E013408360936045019
:100C5800085E0550D8A0053C095ED8B007D00450FE
:100C680008260550D8B0053C0926D890003601362C
:060C78000C2EEAD7120069
:100C7E000CB081EF06F00CA227EF07F00E6A000E03
:100C8E00026498EF06F0F00E0214D8A463EF06F09B
:100C9E00023A01380F0B02260138F00B016E0038B4
:100CAE000F0B01260038F00B006E08380F0B0026D4
:100CBE000838F00B086E0E84D89002BE7CEF06F05A
:100CCE0008360036013602360E2A02BE7CEF06F0DA
:100CDE0008360036013602360E2A02BE7CEF06F0CA
:100CEE0008360036013602360E2A0E5003641DEF0A
:100CFE0007F0035E0BBC08AE22EF07F0D880800E23
:100D0E0008640030000E002201220222D8A022EF39
:100D1E0007F0023201320032034A27EF07F022EFCA
:100D2E0007F001C002F000C001F008C000F0086A30
:100D3E00000E0E860264CFEF06F0F00E0214D8A459
:100D4E00B7EF06F0023A01380F0B02260138F00B0E
:100D5E00016E00380F0B01260038F00B006E0E846A
:100D6E00D89002BE7CEF06F00036013602360E2A0F
:100D7E0002BE7CEF06F00036013602360E2A02BEA7
:100D8E007CEF06F00036013602360E2A7CEF06F0B6
:100D9E0001C002F000C001F0006A000E0E960E882F
:100DAE000264FCEF06F0F00E0214D8A4E7EF06F092
:100DBE00023A01380F0B02260138F00B016E0E8439
:100DCE00D89002BE7CEF06F0013602360E2A02BE25
:100DDE007CEF06F0013602360E2A02BE7CEF06F0DC
:100DEE00013602360E2A7CEF06F001C002F0016ACF
:100DFE00000E0E8602642CEF07F0F00E0214D8A43B
:100E0E000BEF07F0023A0E84D89002BE7CEF06F08C
:100E1E0002360E2A02BE7CEF06F002360E2A02BE03
:100E2E007CEF06F002360E2A7CEF06F0010E0C6EF9
:100E3E0079DD2FEF07F0020E0C6E88DD2FEF07F035
:100E4E00040E0C6E99DD2FEF07F0080E0C6E77DD99
:020E5E00120080
:100E60000C6A0E6A0250D8A449EF07F001C002F0E4
:100E700000C001F0006A0E860250D8A449EF07F0C6
:100E800001C002F0016A0E960E880250D8B45BEFE2
:100E900007F00E50035ED8A4D8A060EF07F0D890FA
:100EA00002BE65EF07F0003601360236032E50EF22
:100EB00007F060EF07F0010E0C6E48DD68EF07F0F9
:100EC000020E0C6E36DD68EF07F0040E0C6E45DD89
:020ED00012000E
:100ED20097C298F245DD1C0E9B6F980E9C6F020E16
:100EE2009D6F010E9E6F000E9F6F010EA06FC6DDFB
:100EF20055DD1C0E02019B6F990E9C6F020E9D6FB9
:100F0200010E9E6F000E9F6FA06B56DD47DD99C2EA
:040F120000F01200D9
:100F16007A0E0201666F010E676FAB0E686F020EE6
:100F2600696FB00E626F080E636F000E646F000E7D
:100F3600656FC40E6A6F080E6B6F000E6C6F000E45
:100F46006D6F9A0E726F080E736F000E746F000E3F
:100F5600756F0F01218B900E226F98849892A4AA28
:0A0F660003D01DCF00F0FBD71200EE
:100F70003EC2E1FF3FC2E2FF90C2E9FF91C2EAFF39
:100F8000EECFE6FF3CC200F03DC201F019EC01F0EB
:040F9000006A1200E1
:100F940090C293F291C294F292C295F20BD0A00E39
:100FA400C86E14DE44D0280EC86E10DE40D0040E85
:100FB400006E3FD093C2F6FF94C2F7FF95C2F8FFCC
:100FC4000900F5CF01F00900F5CF02F00900F5CFD3
:100FD40003F00900F5CF04F00450000A08E10350BF
:100FE400010A05E10250860A02E10150A00AD7E095
:100FF40093C2F6FF94C2F7FF95C2F8FF0900F5CF3C
:1010040001F00900F5CF02F00900F5CF03F0090063
:10101400F5CF04F00450000A08E10350060A05E184
:1010240002501A0A02E10150800ABDE0C0D7000E46
:04103400006E120038
:1010380021D0CF0EAF6EAC9475DD6BD0670EAF6E5E
:10104800AC9470DD66D0CF0EAF6EAC846BDD61D032
:10105800670EAF6EAC8466DD5CD0440EAF6EAC84B8
:1010680061DD57D0220EAF6EAC845CDD52D0060E27
:10107800006E58D00201000E006E931908E100506E
:10108800921905E1120E911902E19051C00AD1E0BE
:10109800000E006E931908E10050921905E1250E23
:1010A800911902E19051800AC9E0000E006E93196F
:1010B80008E10050921905E14B0E911902E1905197
:1010C800000AC1E0000E006E931908E10050921961
:1010D80005E1960E911902E19051000AB9E0000E5F
:1010E800006E931908E10050921905E1E10E91197B
:1010F80002E19051000AB1E09351000A08E19251CF
:10110800010A05E19151C20A02E19051000AAAE0E0
:10111800AED78A0E3C6F010E3D6FAB0E3E6F020ECE
:061128003F6F006A120097
:10112E0038D00F0120870D0E1F6F040E1E6F218504
:10113E00EBDE7ED00F012087060E1F6F820E1E6F14
:10114E002185E2DE75D00F012087030E1F6F400E42
:10115E001E6F2185D9DE6CD00F012087010E1F6F07
:10116E00A00E1E6F2185D0DE63D00F012087010EE9
:10117E001F6F150E1E6F2185C7DE5AD00F012087F7
:10118E001F6B8A0E1E6F2185BFDE52D0060E006EBB
:10119E0059D0000E006E0201931908E10050921909
:1011AE0005E1120E911902E19051C00ABAE0000E4B
:1011BE00006E931908E10050921905E1250E911960
:1011CE0002E19051800AB6E0000E006E931908E11C
:1011DE000050921905E14B0E911902E19051000A4F
:1011EE00B2E0000E006E931908E10050921905E16D
:1011FE00960E911902E19051000AAEE0000E006EBB
:10120E00931908E10050921905E1E10E911902E1DE
:10121E009051000AAAE09351000A08E19251010A86
:10122E0005E19151C20A02E19051000AA7E0AED742
:10123E0002017A0E3C6F010E3D6FAB0E3E6F020E39
:06124E003F6F006A120070
:1012540090C2F6FF91C2F7FF92C2F8FF0900F5CFE2
:1012640020F20900F5CF21F20900F5CF22F209009E
:10127400F5CF23F2040E02019025F66E000E9121A3
:10128400F76E000E9221F86E0900F5CF2CF20900DA
:10129400F5CF2DF20900F5CF2EF20900F5CF2FF28C
:1012A400080E9025F66E000E9121F76E000E922125
:1012B400F86E0900F5CF24F20900F5CF25F20900F4
:1012C400F5CF26F20900F5CF27F20C0E9025F66E25
:1012D400000E9121F76E000E9221F86E0900F5CFF1
:1012E40038F20900F5CF39F20900F5CF3AF20900D6
:1012F400F5CF3BF2100E9025F66E000E9121F76E9D
:10130400000E9221F86E0900F5CF28F20900F5CFFE
:1013140029F20900F5CF2AF20900F5CF2BF21200C9
:10132400300E02019025006E000E9121016E000E18
:101334009221026E1C0E0024F66E000E0120F76E40
:10134400000E0220F86E0900F5CF34F20900F5CF43
:1013540035F20900F5CF36F20900F5CF37F2040E65
:101364009025F66E000E9121F76E000E9221F86E14
:101374000900F5CF30F20900F5CF31F20900F5CFBD
:0A13840032F20900F5CF33F2120037
:10138E0027D0CF0EAF6EAC9496EC05F070D0670EF2
:10139E00AF6EAC9496EC05F06AD0CF0EAF6EAC8407
:1013AE0096EC05F064D0670EAF6EAC8496EC05F04B
:1013BE005ED0440EAF6EAC8496EC05F058D0220E83
:1013CE00AF6EAC8496EC05F052D0060E006E58D07F
:1013DE000201000E006E931908E10050921905E10A
:1013EE00120E911902E19051C00ACBE0000E006E70
:1013FE00931908E10050921905E1250E911902E1A9
:10140E009051800AC4E0000E006E931908E100505E
:10141E00921905E14B0E911902E19051000ABDE0BF
:10142E00000E006E931908E10050921905E1960E18
:10143E00911902E19051000AB6E0000E006E931968
:10144E0008E10050921905E1E10E911902E1905167
:10145E00000AAFE09351000A08E19251010A05E13A
:10146E009151C20A02E19051000AA9E0AED78A0E4C
:10147E003C6F010E3D6FAB0E3E6F020E3F6F006A6A
:02148E0012004A
:1014900090C293F291C294F292C295F20DD0A00E36
:1014A000C86EE8EC05F045D0280EC86EE8EC05F0F3
:1014B00040D0040E006E3FD093C2F6FF94C2F7FFF7
:1014C00095C2F8FF0900F5CF01F00900F5CF02F051
:1014D0000900F5CF03F00900F5CF04F00450000A2D
:1014E00008E10350010A05E10250860A02E10150B9
:1014F000A00AD5E093C2F6FF94C2F7FF95C2F8FFA9
:101500000900F5CF01F00900F5CF02F00900F5CF91
:1015100003F00900F5CF04F00450000A08E103507D
:10152000060A05E102501A0A02E10150800ABCE0F5
:08153000C0D7000E006E12008E
:1015380027D0CF0EAF6EAC9496EC05F070D0670E46
:10154800AF6EAC9496EC05F06AD0CF0EAF6EAC845B
:1015580096EC05F064D0670EAF6EAC8496EC05F09F
:101568005ED0440EAF6EAC8496EC05F058D0220ED7
:10157800AF6EAC8496EC05F052D0060E006E58D0D3
:101588000201000E006E931908E10050921905E15E
:10159800120E911902E19051C00ACBE0000E006EC4
:1015A800931908E10050921905E1250E911902E1FD
:1015B8009051800AC4E0000E006E931908E10050B3
:1015C800921905E14B0E911902E19051000ABDE014
:1015D800000E006E931908E10050921905E1960E6D
:1015E800911902E19051000AB6E0000E006E9319BD
:1015F80008E10050921905E1E10E911902E19051BC
:10160800000AAFE09351000A08E19251010A05E18E
:101618009151C20A02E19051000AA9E0AED78A0EA0
:101628003C6F010E3D6FAB0E3E6F020E3F6F006ABE
:0216380012009E
:10163A0002019051010F976FC6EC05F000C093F2BA
:10164A0090C297F2C6EC05F000C094F293C291F2F0
:10165A00000E0201926F91C203F0026A02C091F277
:10166A0003C092F2000E016E0250001203500112E2
:0A167A0000C091F201C092F21200CC
:1016840059D0020191B102D0929201D092820F01FD
:10169400259376D0020191B102D0929801D092881C
:1016A4006FD0020191B102D0969201D0968268D097
:1016B400020191B102D0949601D0948661D00201C6
:1016C40091B102D0949801D094885AD0020191B17A
:1016D40002D0949A01D0948A53D0020191B102D0DD
:1016E400949401D094844CD0020191B102D093928D
:1016F40001D0938245D0020191B102D0949E01D0D1
:10170400948E3ED0020191B102D0949C01D0948C6D
:1017140037D0020191B102D0949601D0948630D092
:10172400020191B102D0949801D0948829D0010E7D
:10173400006E28D002019051000AA3E09051010AE2
:10174400A9E09051020AADE09051030AB1E0905132
:10175400040AB5E09051050AB9E09051060ABDE0CB
:101764009051070AC1E09051080AC5E09051090A56
:10177400C9E090510A0ACDE090510B0AD1E0D7D7C5
:06178400000E006E1200D1
:10178A000450000A12E10550000A0FE10650000A4F
:10179A000CE10750000A09E1FF0E006EFF0E016E10
:1017AA007F0E026EFF0E036EA8D0086A096A075000
:1017BA00D8B470EF0CF00350D8B475EF0CF00250A7
:1017CA0006180A6E028E068E0E6A02C008F001C062
:1017DA000CF000C00DF004500D5E0550D8A0053C79
:1017EA000C5E0650D8A0063C085E086A0C6A0D6AB0
:1017FA00D8A007EF0CF0D89002320132003208323A
:10180A00010E0E6E0750035ED8A014EF0CF07E0E88
:10181A000E240326D8B07AEF0CF01AEF0CF07E0EE5
:10182A000E240326D8A07FEF0CF0180E0B6E0D368F
:10183A000C3608360036013602360E360450005E83
:10184A000550D8A0053C015E0650D8A0063C025EB1
:10185A0006340E120EA035EF0CF00D8040EF0CF09E
:10186A00045000260550D8B0053C01260650D8B0D1
:10187A00062802260D900B2E1CEF0CF066EF0CF0DA
:10188A00D8900036013602360E360450005E0550F6
:10189A00D8A0053C015E0650D8A0063C025E06347C
:1018AA000E10010B0D26D8B00C2AD8B4082AD8A4D9
:1018BA0066EF0CF008320C320D32032AD8B47AEFF4
:1018CA000CF00AAE089E0850026E0C50016E0D50C4
:1018DA00006E82EF0CF0010EC2EC05F082EF0CF004
:1018EA00020EA6EC04F082EF0CF0040EC3EC04F036
:0C18FA0082EF0CF0080E99EC04F01200D4
:10190600025006180E6E086A096A0B6A03500764CD
:1019160076EF0DF006500A6E068E028E03500B6EA1
:101926000750036E000E0B64C6EF0CF00B50075EFB
:10193600D8B467EF0DF0070E076435EF0DF0075EBC
:1019460000C008F001C000F002C001F0026A074EB4
:1019560067EF0DF007640AEF0DF0075E00C008F0B0
:1019660001C000F0016A074E67EF0DF00764E8EF6B
:101976000CF0075E00C008F0006A074E67EF0DF036
:101986000764CFEF0CF00AC002F005C001F004C0F6
:1019960000F0086A93EF0EF0030E0764DAEF0CF01E
:1019A600075E08380F0B086E074E67EF0DF0D890EC
:1019B6000832074E67EF0DF0D8900832074E67EFF2
:1019C6000DF0D890083267EF0DF0030E0764F9EFBB
:1019D6000CF0075E08380F0B086E0038F00B08266F
:1019E60000380F0B006E074E67EF0DF0D8900032EF
:1019F6000832074E67EF0DF0D89000320832074ED6
:101A060067EF0DF0D8900032083267EF0DF0030E45
:101A1600076421EF0DF0075E08380F0B086E0038DB
:101A2600F00B082600380F0B006E0138F00B00266D
:101A360001380F0B016E074E67EF0DF0D89001329B
:101A460000320832074E67EF0DF0D89001320032AF
:101A56000832074E67EF0DF0D89001320032083297
:101A660067EF0DF0030E076452EF0DF0075E0838BE
:101A76000F0B086E0038F00B082600380F0B006EAF
:101A86000138F00B002601380F0B016E0238F00BFF
:101A9600012602380F0B026E074E67EF0DF0D89045
:101AA6000232013200320832074E67EF0DF0D8904D
:101AB6000232013200320832074E67EF0DF0D8903D
:101AC6000232013200320832096A000E0EAE5BEFB6
:101AD6000EF0081E001E011E021E082A0022012208
:101AE60002225BEF0EF00750D8A47CEF0DF093EFC7
:101AF6000EF0096A02C00AF0028E068E0750035CD9
:101B0600076ED8B44EEF0EF0070E07641CEF0EF00A
:101B1600075E0450096E0550046E0650056E066A8F
:101B2600074E4EEF0EF0070E0764F1EF0DF0075E5D
:101B36000450096E0550046E056A074E4EEF0EF00E
:101B4600070E0764CFEF0DF0075E0450096E046AB6
:101B5600074E4EEF0EF0070E0764B6EF0DF00AC003
:101B660002F093EF0EF0030E0764C1EF0DF0075E6F
:101B760009380F0B096E074E4EEF0EF0D89009325A
:101B8600074E4EEF0EF0D8900932074E4EEF0EF08C
:101B9600D89009324EEF0EF0030E0764E0EF0DF019
:101BA600075E09380F0B096E0438F00B0926043856
:101BB6000F0B046E074E4EEF0EF0D890043209322A
:101BC600074E4EEF0EF0D89004320932074E4EEF14
:101BD6000EF0D890043209324EEF0EF0030E076471
:101BE60008EF0EF0075E09380F0B096E0438F00B8C
:101BF600092604380F0B046E0538F00B0426053849
:101C06000F0B056E074E4EEF0EF0D89005320432DC
:101C16000932074E4EEF0EF0D890053204320932E3
:101C2600074E4EEF0EF0D8900532043209324EEFD1
:101C36000EF0030E076439EF0EF0075E09380F0B3E
:101C4600096E0438F00B092604380F0B046E0538AC
:101C5600F00B042605380F0B056E0638F00B05262B
:101C660006380F0B066E074E4EEF0EF0D890063272
:101C7600053204320932074E4EEF0EF0D890063286
:101C8600053204320932074E4EEF0EF0D890063276
:101C9600053204320932086A000E0EAE5BEF0EF012
:101CA600091E041E051E061E092A042205220622F6
:101CB600095008260450002205500122065002222F
:101CC6000EBE72EF0EF0D8A081EF0EF00232013296
:101CD60000320832033E81EF0EF08DEF0EF0D8B0E1
:101CE60087EF0EF0000E081E001E011E021E082AB7
:101CF6000022012202220A7E87EF0EF0010E0C6EF0
:101D06003FEC06F095EF0EF0020E0C6E3FEC06F07F
:101D160095EF0EF0040E0C6EC3EC04F095EF0EF08A
:061D2600000E0C6E12001D
:101D2C0002019051010F976F69EC07F000C093F21C
:101D3C0090C297F269EC07F000C094F293C291F252
:101D4C00000E0201926F91C203F0026A02C091F27E
:101D5C0003C092F2000E016E0250001203500112E9
:0A1D6C0000C091F201C092F21200D3
:101D760000C008F00150006E016A026A036A0B6A2D
:101D86000C6A016A026A036A960E036E0A6A00AE5C
:101D9600D3EF0EF0081E001E082AD8B4002A0A8EB9
:101DA60000C001F008C000F0086A026A30EC07F0D3
:021DB600120019
:101DB80059D0020191B102D0929001D092800F01C6
:101DC800259176D0020191B102D0949001D09480EF
:101DD8006FD0020191B102D0969001D0968068D060
:101DE800020191B102D0949601D0948661D002018B
:101DF80091B102D0949801D094885AD0020191B13F
:101E080002D0949A01D0948A53D0020191B102D0A1
:101E1800949201D094824CD0020191B102D0939057
:101E280001D0938045D0020191B102D0949E01D097
:101E3800948E3ED0020191B102D0949C01D0948C32
:101E480037D0020191B102D0949601D0948630D057
:101E5800020191B102D0949801D0948829D0010E42
:101E6800006E28D002019051000AA3E09051010AA7
:101E7800A9E09051020AADE09051030AB1E09051F7
:101E8800040AB5E09051050AB9E09051060ABDE090
:101E98009051070AC1E09051080AC5E09051090A1B
:101EA800C9E090510A0ACDE090510B0AD1E0D7D78A
:061EB800000E006E120096
:101EBE000201946B050E945D0AE294519225E16E37
:101ECE00000E9321E26E200EE66E942BF3D7945102
:101EDE009225E16E000E9321E26EE66A940794510C
:101EEE009225956F000E9321966F0A0E046E000ECA
:101EFE00056E90C200F091C201F024EC06F008C00D
:101F0E0000F009C001F0300E002695C2E1FF96C226
:101F1E00E2FF00C0E6FF0A0E046E000E056E90C2D0
:101F2E0000F091C201F024EC06F000C090F201C066
:101F3E0091F2000E011802E1000E001801E102D02C
:061F4E009407CDD712003C
:101F54000B800BAEB6EF0FF0026A0AAEFF0E026EF4
:0C1F6400016E006E0A360232FF0E120001
:101F70005DD0020191B102D0929401D092840F0100
:101F800025957AD0020191B102D0969601D096861D
:101F900073D0020191B102D0969401D096846CD096
:101FA000020191B102D0949601D0948665D00201CD
:101FB00091B102D0949801D094885ED0020191B181
:101FC00002D0949A01D0948A57D0020191B102D0E4
:101FD000989001D0988050D0020191B102D0939492
:101FE00001D0938449D0020191B102D0989401D0DC
:101FF00098840F01239540D0020191B102D09892AC
:1020000001D098820F01239337D0020191B102D001
:10201000949601D0948630D0020191B102D0949868
:1020200001D0948829D0010E006E28D00201905171
:10203000000A9FE09051010AA5E09051020AA9E030
:102040009051030AADE09051040AB1E09051050AA5
:10205000B5E09051060AB9E09051070ABDE09051F1
:10206000080AC1E09051090AC7E090510A0ACDE080
:0E20700090510B0AD1E0D7D7000E006E12007F
:10207E0090C293F291C294F292C295F20DD0A00E3C
:10208E00C86EE8EC05F045D0280EC86EE8EC05F0F9
:10209E0040D0040E006E3FD093C2F6FF94C2F7FFFD
:1020AE0095C2F8FF0900F5CF01F00900F5CF02F057
:1020BE000900F5CF03F00900F5CF04F00450000A33
:1020CE0008E10350010A05E10250860A02E10150BF
:1020DE00A00AD5E093C2F6FF94C2F7FF95C2F8FFAF
:1020EE000900F5CF01F00900F5CF02F00900F5CF98
:1020FE0003F00900F5CF04F00450000A08E1035084
:10210E00060A05E102501A0A02E10150800ABCE0FB
:08211E00C0D7000E006E120094
:1021260016D087C290F288C291F243DE1BD087C2D6
:1021360090F288C291F242EC0BF014D087C290F272
:1021460088C291F212DF0ED0010E006E0BD0020192
:102156008651000AE6E08651010AE9E08651020A44
:06216600EDE0F2D71200CB
:10216C002FD087C290F288C291F289C292F28AC2B1
:10217C0093F29CEC0AF032D087C290F288C291F2B2
:10218C0089C292F28AC293F2C7EC09F027D087C2B7
:10219C0090F288C291F289C292F28AC293F297ECC1
:1021AC0008F01CD087C290F288C291F289C292F2D8
:1021BC008AC293F21CEC08F011D0010E006E0ED006
:1021CC0002018651000ACDE08651010AD5E0865104
:0E21DC00020ADDE08651100AE5E0EFD712009E
:1021EA001DD087C290F288C291F289C292F242DF70
:1021FA0020D087C290F288C291F289C292F2CAECC8
:10220A0007F017D087C290F288C291F289C292F27F
:10221A0048EC0AF00ED0010E006E0BD00201865176
:10222A00000ADFE08651010AE4E08651020AEAE088
:04223A00F2D71200C5
:10223E000B6A0350D8B465EF11F002500A6E028E8D
:10224E008E0E035E03AE69EF11F0036C080E035C95
:10225E00D8A044EF11F0036E013602C001F0026AFD
:10226E00080E035CD8A044EF11F0036E0136016A2C
:10227E000350D8A4D8904EEF11F00350D8B44EEFBF
:10228E0011F0D89002320132032E48EF11F00BBC40
:10229E0001A05BEF11F0D8A05BEF11F0012AD8B4CA
:1022AE00022A02BE78EF11F00AAE7DEF11F0021E87
:1022BE00011E012AD8B4022A7DEF11F0026A016ACA
:1022CE007DEF11F00B800BAE81EF11F0026A0AAEBA
:1022DE0081EF11F0FF0E026E016E0A36023281EFAF
:1022EE0011F0010E0C6E2FDE83EF11F0000E0C6E4E
:1022FE0083EF11F0FF0E0C6E0150006E0250016E56
:02230E001200BB
:10231000520E0B6E2B0E0C6E000E0D6E0D2EFED798
:0C2320000C2EFCD70B2EFAD70000120088
:10232C00280E0201906F1DEC0BF086C2E1FF87C2F4
:10233C00E2FF00C0E6FF01C0E6FF2A0E906F1DEC25
:10234C000BF088C2E1FF89C2E2FF00C0E6FF01C0CA
:10235C00E6FF2C0E906F1DEC0BF08AC2E1FF8BC2D6
:0C236C00E2FF00C0E6FF01C0E6FF120027
:1023780002018C6B8D6B86C28EF287C28FF2800E43
:102388008719006E800E005C02E1000E865D0BE28C
:10239800010E8C6F000E8D6F865100088E6F87C2FC
:1023A8008FF2000E8F578EC290F28FC291F288C2C0
:1023B80092F289C293F27FDD060E8A6F000E8B6F50
:1023C800000E006E8B51005C02E18A51000819E290
:1023D8008A518825E16E8B518921E26E010E8A5D52
:1023E800006E000E8B59016E00508825E96E015071
:1023F8008921EA6EEECFE6FF010E8A5F000E8B5B45
:10240800DFD788C2E1FF89C2E2FF200EE66E8C5159
:102418008D111AE08A6B8B6B8A518825E96E8B5176
:102428008921EA6EEE50200A03E18A4B8B2BF4D700
:10243800010E8A5F000E8B5B8A518825E16E8B51F5
:0A2448008921E26E2D0EE66E1200EF
:10245200150E0201906F1DEC0BF08CDC000E046E69
:10246200000E056E000E066E870E076EC5EC0BF0B1
:10247200000E046E000E056E480E066E830E076E89
:0624820083EC0CF01200D7
:10248800280E0201906F4EDC86C2E1FF87C2E2FF90
:1024980000C0E6FF01C0E6FF2A0E906F43DC88C249
:1024A800E1FF89C2E2FF00C0E6FF01C0E6FF2C0E93
:1024B800906F38DC8AC2E1FF8BC2E2FF00C0E6FF02
:0624C80001C0E6FF120056
:1024CE00180E0201906F1DEC0BF086C2E1FF87C261
:1024DE00E2FF00C0E6FF01C0E6FF1A0E906F1DEC92
:1024EE000BF088C2E1FF89C2E2FF00C0E6FF01C027
:1024FE00E6FF1C0E906F1DEC0BF08AC2E1FF8BC243
:0C250E00E2FF00C0E6FF01C0E6FF120083
:10251A00D00E0C6EC90E0D6E0D2EFED70C2EFCD7EA
:06252A0000000000120099
:1025300086C2FFF087C200F1B1EC04F0FEC09BF24E
:10254000FF0E9C6F000E9D6F020E9E6F000E9F6F20
:08255000A06B3FEC05F0120046
:102558008CC2FEF089C290F28AC291F28BC292F2CA
:102568002AEC09F086C290F287C291F288C292F2F0
:1025780092EC09F032C2E1FF33C2E2FF010EE66ECF
:0E25880030C200F031C201F019EC01F0120077
:1025960086C289F287C28AF20D0E0001FF6F0A0E0B
:1025A6000101006F3AD089C290F28AC291F2B8EC6A
:1025B60007F03ED089C2E9FF8AC2EAFFEE520AE07E
:1025C60089C290F28AC291F2B8EC07F00201894BF7
:1025D6008A2BF0D72DD089C2E9FF8AC2EAFFEE52D4
:1025E6000AE089C290F28AC291F2B8EC07F00201C1
:1025F600894B8A2BF0D70201FF0E906F000E916F68
:10260600B8EC07F0000E0201906F010E916FB8EC66
:1026160007F00ED0060E006E0CD002018851000A9B
:10262600C2E08851010AC6E08851020AD4E0F2D716
:04263600006A120024
:10263A0086C2FFF087C200F1B1EC04F01C0E9B6F5A
:10264A00FF0E9C6F000E9D6F020E9E6F000E9F6F15
:08265A00A06B3FEC05F012003B
:102662000201866B070E876F010E886F5BDD020128
:10267200866B010E876F886B55DD0201866B800EBB
:10268200876F2D0E886F000E896FAEDD010E02017D
:10269200866F800E876F250E886F000E896F8A6F96
:1026A20064DD090E0B6E1E0E0C6EE40E0D6E0D2E09
:0E26B200FED70C2EFCD70B2EFAD7000012001C
:1026C0000900F5CFE6FF0006FBE10106F9E1120083
:1026D000580E0201866F020E876F5C0E886F020E25
:1026E000896F5A0E8A6F020E8B6F20DECFEC04F0DA
:1026F0007E0E866F020E876F7C0E886F020E896FCA
:10270000800E8A6F020E8B6FE2DECFEC04F0840E37
:10271000866F020E876F820E886F020E896F7A0EA7
:102720008A6F020E8B6FB0DECFEC04F092DE00C039
:1027300076F201C077F202C078F203C079F2CFECF2
:1027400004F0F60E0201866F010E876F010E886F8E
:1027500022DF58C286F259C287F20B0E0201886F3F
:10276000020E896F09DE0B0E866F020E876F010E57
:10277000886F11DF1A0E0201866F020E876F010E3D
:10278000886F09DF010E0201866F020E876F010E4E
:10279000886F01DF7EC286F27FC287F20B0E0201D4
:1027A000886F020E896FE8DD0B0E866F020E876F51
:1027B000010E886FF0DEF00E0201866F010E876F4A
:1027C000010E886FE8DE7F0E0201866F000E876FB4
:1027D000010E886FE0DE84C286F285C287F20B0E9E
:1027E0000201886F020E896FC7DD0B0E866F020E25
:1027F000876F010E886FCFDE880E0201866F000E94
:10280000876F010E886FC7DE620E0201866F000EB1
:10281000876F020E886FBFDE740E0201866F000E96
:10282000876F010E886FB7DE5CC286F25DC287F2E9
:102830000B0E0201886F020E896F9EDD0B0E866FF4
:10284000020E876F010E886FA6DE8C0E0201866F66
:10285000000E876F010E886F9EDEA10E0201866F4B
:10286000000E876F010E886F96DE7CC286F27DC2F5
:1028700087F20B0E0201886F020E896F7DDD0B0E51
:10288000866F020E876F010E886F85DEAB0E020128
:10289000866F000E876F010E886F7DDE920E02013B
:1028A000866F000E876F010E886F75DE82C286F21A
:1028B00083C287F20B0E0201886F020E896F5CDD06
:1028C0000B0E866F020E876F010E886F64DE9B0E03
:1028D0000201866F000E876F010E886F5CDE260E88
:1028E0000201866F000E876F010E886F54DE76C27C
:1028F00000F077C201F078C202F079C203F09FDCE9
:1029000000C086F201C087F20B0E0201886F020E32
:10291000896F32DD0B0E866F020E876F010E886F96
:102920003ADE2D0E0201866F000E876F020E886F51
:1029300032DE150E0201866F000E876F010E886F62
:102940002ADE5AC286F25BC287F20B0E0201886F42
:10295000020E896F11DD0B0E866F020E876F010E5E
:10296000886F19DE200E0201866F000E876F010E40
:10297000886F11DE330E0201866F000E876F010E25
:10298000886F09DE80C286F281C287F20B0E0201D7
:10299000886F020E896FF0DC0B0E866F020E876F58
:1029A000010E886FF8DD530E0201866F000E876FEF
:1029B000010E886FF0DD590E0201866F000E876FE1
:1029C000010E886FE8DD7AC286F27BC287F20B0EB9
:1029D0000201886F020E896FCFDC0B0E866F020E2C
:1029E000876F010E886FD7DD3D0E0201866F000EE6
:1029F000876F010E886FCFDD410E0201866F000EDA
:102A0000876F020E886FC7DDB10E0201866F000E60
:0C2A1000876F020E886FBFDD7BDC1200B8
:102A1C000C0E0201866F2D0E876F000E886F6C0EE8
:102A2C00896F2D0E8A6F000E8B6F6A0E8C6F8EDD88
:102A3C001E0E0201866F380E876F74DD68DD100E76
:102A4C000201866F820E876F6DDD61DD1F0E020144
:102A5C00866F380E876F66DD5ADD200E0201866F99
:102A6C00830E876F5FDD53DD220E0201866F440EED
:102A7C00876F58DD4CDD200E0201866FD00E876FFC
:102A8C00D6DD45DD210E0201866F876BD0DD3FDD83
:102A9C00220E0201866F876BCADD39DD230E02011F
:102AAC00866F080E876FC3DD32DD240E0201866F40
:102ABC00400E876FBCDD2BDD520E0201866F010EBE
:102ACC00876F020E886F61DD9F0E0201866F010E0B
:102ADC00876F020E886F59DD050E0201866F010E9D
:0A2AEC00876F020E886F51DD1200A3
:0E2AF600C2EC16F0B3DD8FDFE8DDFED7FFD7B0
:102D840010EE15F0E90E006E010E016E230EF66EC4
:102D94002C0EF76E000EF86E60EC13F011EE01F0DD
:102DA4001F0E006E020E016E040EF66E2B0EF76EF1
:0A2DB400000EF86E60EC13F0120040
:042B040000000000CD
:102B08002D2D2D2D2D2D2D2D2D2D2D2D2D2D2D2DED
:102B18002D2D2D2D2D2D2D2D2D2D2D2D2D2D2D2DDD
:102B28002D2D2D2D2D2D2D2D2D2D2D2D2D2D2D2DCD
:102B38002D2D2D2D2D2D2D2D2D2D2D2D2D2D2D2DBD
:0D2B48002D2D2D2D2D2D2D2D2D2D2D2D0064
:102B55002D2D2D2D2D2D2D2D2D2D2D2D2D2D2D2DA0
:102B65002D2D2D2D2D2D2D2D2D2D2D2D2D2D2D2D90
:102B75002D2D2D2D2D2D2D2D2D2D2D2D2D2D2D2D80
:102B85002D2D2D2D2D2D2D2D2D2D2D2D2D2D2D2D70
:0D2B95002D2D2D2D2D2D2D2D2D2D2D2D0017
:102BA2007C2020202020416363656C20202020208F
:102BB20020207C202020202020204779726F202096
:102BC2002020202020207C202020202020204D6139
:102BD2006720202020202020207C20202020202050
:0D2BE2002054656D702E20B04320207C0033
:042BEF0000000000E2
:062BF30020207C202000E0
:0B2BF90020416363656C2058203A0007
:0A2C0400204779726F2058203A0033
:0F2C0E00000000000000000000000000000000B7
:062C1D0020207C202000B5
:0B2C230020416363656C205A203A00DA
:062C2E0020207C202000A4
:072C340054656D702E3A009B
:062C3B00B0202A20200059
:0A2C4100204779726F205A203A00F4
:042C4B0020202A001B
:102C4F002A2A2A2A2A2A2A2A2A2A2A2A2A2A2A2AD5
:022C5F002A0049
:062C610020207C20200071
:092C6700204D6167205A203A005B
:102C70002A2A2A2A2A2A2A2A2A2A2A2A2A2A2A2AB4
:022C80002A0028
:0B2C820020416363656C2059203A007C
:092C8D00204D61672058203A0037
:042C960020202A00D0
:062C9A0020207C20200038
:092CA000204D61672059203A0023
:062CA90020202A2020007B
:0A2CAF00204779726F2059203A0087
:062CB90020207C20200019
:102CBF002D2D2D2D2D2D2D2D2D2D2D2D2D2D2D2D35
:102CCF002D2D2D2D2D2D2D2D2D2D2D2D2D2D2D2D25
:102CDF002D2D2D2D2D2D2D2D2D2D2D2D2D2D2D2D15
:102CEF002D2D2D2D2D2D2D2D2D2D2D2D2D2D2D2D05
:0D2CFF002D2D2D2D2D2D2D2D2D2D2D2D00AC
:102D0C00A601AB029801AB026C01AB024201AB0213
:102D1C003401AB025E01AB025001AB020802AB0204
:102D2C00FA01AB022402AB021602AB02EC01AB02BD
:102D3C008A0300007603000000090000F60800007A
:102D4C00EC080000800300003A040000E2080000D8
:102D5C00D8080000A6080000880200007E020000CF
:102D6C00A60300001A070000580400004607A5023D
:042D7C00B004A502F8
:042D8000A086010028
:020000040030CA
:0E00000015137F7CF98B91FFFFC0FFE0FF40DE
:00000001FF
